{"abi":[{"type":"function","name":"getNumberPlus17","inputs":[],"outputs":[{"name":"","type":"uint256","internalType":"uint256"}],"stateMutability":"view"},{"type":"function","name":"getNumberPlus17a","inputs":[],"outputs":[{"name":"numPlus17","type":"uint256","internalType":"uint256"}],"stateMutability":"view"},{"type":"function","name":"increment","inputs":[],"outputs":[],"stateMutability":"nonpayable"},{"type":"function","name":"number","inputs":[],"outputs":[{"name":"","type":"uint256","internalType":"uint256"}],"stateMutability":"view"},{"type":"function","name":"setNumber","inputs":[{"name":"_newNumber","type":"uint256","internalType":"uint256"}],"outputs":[],"stateMutability":"nonpayable"},{"type":"event","name":"NumberChanged","inputs":[{"name":"_val","type":"uint256","indexed":false,"internalType":"uint256"}],"anonymous":false},{"type":"error","name":"NoChange","inputs":[{"name":"_val","type":"uint256","internalType":"uint256"}]}],"bytecode":{"object":"0x6080604052348015600e575f80fd5b5061030a8061001c5f395ff3fe608060405234801561000f575f80fd5b5060043610610055575f3560e01c8063273e24311461005957806339cd20ab146100775780633fb5c1cb146100955780638381f58a146100b1578063d09de08a146100cf575b5f80fd5b6100616100d9565b60405161006e91906101bb565b60405180910390f35b61007f6100ed565b60405161008c91906101bb565b60405180910390f35b6100af60048036038101906100aa9190610202565b610101565b005b6100b9610186565b6040516100c691906101bb565b60405180910390f35b6100d761018b565b005b5f60115f546100e8919061025a565b905090565b5f60115f546100fc919061025a565b905090565b805f540361014657806040517fb305b7e600000000000000000000000000000000000000000000000000000000815260040161013d91906101bb565b60405180910390fd5b7f2fd81fd19d3c5c4b396dd13f451dafc8bcac1b3094c49c5fa90e68456323f0e38160405161017591906101bb565b60405180910390a1805f8190555050565b5f5481565b5f8081548092919061019c9061028d565b9190505550565b5f819050919050565b6101b5816101a3565b82525050565b5f6020820190506101ce5f8301846101ac565b92915050565b5f80fd5b6101e1816101a3565b81146101eb575f80fd5b50565b5f813590506101fc816101d8565b92915050565b5f60208284031215610217576102166101d4565b5b5f610224848285016101ee565b91505092915050565b7f4e487b71000000000000000000000000000000000000000000000000000000005f52601160045260245ffd5b5f610264826101a3565b915061026f836101a3565b92508282019050808211156102875761028661022d565b5b92915050565b5f610297826101a3565b91507fffffffffffffffffffffffffffffffffffffffffffffffffffffffffffffffff82036102c9576102c861022d565b5b60018201905091905056fea264697066735822122054dd587ec1aab2b817b4865e6d1de375e7b5d614d40c50898fa5f6119776c0a664736f6c634300081a0033","linkReferences":{}},"methodIdentifiers":{"getNumberPlus17()":"273e2431","getNumberPlus17a()":"39cd20ab","increment()":"d09de08a","number()":"8381f58a","setNumber(uint256)":"3fb5c1cb"},"id":0}