{"abi":[{"type":"constructor","inputs":[{"name":"owner","type":"address","internalType":"address"}],"stateMutability":"nonpayable"},{"type":"function","name":"_owner","inputs":[],"outputs":[{"name":"","type":"address","internalType":"address"}],"stateMutability":"view"},{"type":"function","name":"balanceOf","inputs":[{"name":"account","type":"address","internalType":"address"},{"name":"id","type":"uint256","internalType":"uint256"}],"outputs":[{"name":"","type":"uint256","internalType":"uint256"}],"stateMutability":"view"},{"type":"function","name":"balanceOfBatch","inputs":[{"name":"accounts","type":"address[]","internalType":"address[]"},{"name":"ids","type":"uint256[]","internalType":"uint256[]"}],"outputs":[{"name":"","type":"uint256[]","internalType":"uint256[]"}],"stateMutability":"view"},{"type":"function","name":"burn","inputs":[{"name":"from","type":"address","internalType":"address"},{"name":"tpftId","type":"uint256","internalType":"uint256"},{"name":"tpftAmount","type":"uint256","internalType":"uint256"}],"outputs":[],"stateMutability":"nonpayable"},{"type":"function","name":"createTPFt","inputs":[{"name":"acronym","type":"string","internalType":"string"},{"name":"code","type":"string","internalType":"string"},{"name":"maturityDate","type":"uint256","internalType":"uint256"}],"outputs":[],"stateMutability":"nonpayable"},{"type":"function","name":"exists","inputs":[{"name":"id","type":"uint256","internalType":"uint256"}],"outputs":[{"name":"","type":"bool","internalType":"bool"}],"stateMutability":"view"},{"type":"function","name":"getTPFtData","inputs":[{"name":"tpftId","type":"uint256","internalType":"uint256"}],"outputs":[{"name":"","type":"tuple","internalType":"struct TPFtData","components":[{"name":"acronym","type":"string","internalType":"string"},{"name":"code","type":"string","internalType":"string"},{"name":"maturityDate","type":"uint256","internalType":"uint256"}]}],"stateMutability":"view"},{"type":"function","name":"getTPFtTotals","inputs":[],"outputs":[{"name":"","type":"uint256","internalType":"uint256"}],"stateMutability":"view"},{"type":"function","name":"getTotalSupplyById","inputs":[{"name":"id","type":"uint256","internalType":"uint256"}],"outputs":[{"name":"","type":"uint256","internalType":"uint256"}],"stateMutability":"view"},{"type":"function","name":"isApprovedForAll","inputs":[{"name":"account","type":"address","internalType":"address"},{"name":"operator","type":"address","internalType":"address"}],"outputs":[{"name":"","type":"bool","internalType":"bool"}],"stateMutability":"view"},{"type":"function","name":"mint","inputs":[{"name":"receiverAddress","type":"address","internalType":"address"},{"name":"tpftId","type":"uint256","internalType":"uint256"},{"name":"tpftAmount","type":"uint256","internalType":"uint256"}],"outputs":[],"stateMutability":"nonpayable"},{"type":"function","name":"safeBatchTransferFrom","inputs":[{"name":"from","type":"address","internalType":"address"},{"name":"to","type":"address","internalType":"address"},{"name":"ids","type":"uint256[]","internalType":"uint256[]"},{"name":"values","type":"uint256[]","internalType":"uint256[]"},{"name":"data","type":"bytes","internalType":"bytes"}],"outputs":[],"stateMutability":"nonpayable"},{"type":"function","name":"safeTransferFrom","inputs":[{"name":"from","type":"address","internalType":"address"},{"name":"to","type":"address","internalType":"address"},{"name":"tpftId","type":"uint256","internalType":"uint256"},{"name":"tpftAmount","type":"uint256","internalType":"uint256"}],"outputs":[],"stateMutability":"nonpayable"},{"type":"function","name":"safeTransferFrom","inputs":[{"name":"from","type":"address","internalType":"address"},{"name":"to","type":"address","internalType":"address"},{"name":"id","type":"uint256","internalType":"uint256"},{"name":"value","type":"uint256","internalType":"uint256"},{"name":"data","type":"bytes","internalType":"bytes"}],"outputs":[],"stateMutability":"nonpayable"},{"type":"function","name":"setApprovalForAll","inputs":[{"name":"operator","type":"address","internalType":"address"},{"name":"approved","type":"bool","internalType":"bool"}],"outputs":[],"stateMutability":"nonpayable"},{"type":"function","name":"supportsInterface","inputs":[{"name":"interfaceId","type":"bytes4","internalType":"bytes4"}],"outputs":[{"name":"","type":"bool","internalType":"bool"}],"stateMutability":"view"},{"type":"function","name":"totalSupply","inputs":[],"outputs":[{"name":"","type":"uint256","internalType":"uint256"}],"stateMutability":"view"},{"type":"function","name":"totalSupply","inputs":[{"name":"id","type":"uint256","internalType":"uint256"}],"outputs":[{"name":"","type":"uint256","internalType":"uint256"}],"stateMutability":"view"},{"type":"function","name":"uri","inputs":[{"name":"","type":"uint256","internalType":"uint256"}],"outputs":[{"name":"","type":"string","internalType":"string"}],"stateMutability":"view"},{"type":"event","name":"ApprovalForAll","inputs":[{"name":"account","type":"address","indexed":true,"internalType":"address"},{"name":"operator","type":"address","indexed":true,"internalType":"address"},{"name":"approved","type":"bool","indexed":false,"internalType":"bool"}],"anonymous":false},{"type":"event","name":"TransferBatch","inputs":[{"name":"operator","type":"address","indexed":true,"internalType":"address"},{"name":"from","type":"address","indexed":true,"internalType":"address"},{"name":"to","type":"address","indexed":true,"internalType":"address"},{"name":"ids","type":"uint256[]","indexed":false,"internalType":"uint256[]"},{"name":"values","type":"uint256[]","indexed":false,"internalType":"uint256[]"}],"anonymous":false},{"type":"event","name":"TransferSingle","inputs":[{"name":"operator","type":"address","indexed":true,"internalType":"address"},{"name":"from","type":"address","indexed":true,"internalType":"address"},{"name":"to","type":"address","indexed":true,"internalType":"address"},{"name":"id","type":"uint256","indexed":false,"internalType":"uint256"},{"name":"value","type":"uint256","indexed":false,"internalType":"uint256"}],"anonymous":false},{"type":"event","name":"URI","inputs":[{"name":"value","type":"string","indexed":false,"internalType":"string"},{"name":"id","type":"uint256","indexed":true,"internalType":"uint256"}],"anonymous":false},{"type":"error","name":"ERC1155InsufficientBalance","inputs":[{"name":"sender","type":"address","internalType":"address"},{"name":"balance","type":"uint256","internalType":"uint256"},{"name":"needed","type":"uint256","internalType":"uint256"},{"name":"tokenId","type":"uint256","internalType":"uint256"}]},{"type":"error","name":"ERC1155InvalidApprover","inputs":[{"name":"approver","type":"address","internalType":"address"}]},{"type":"error","name":"ERC1155InvalidArrayLength","inputs":[{"name":"idsLength","type":"uint256","internalType":"uint256"},{"name":"valuesLength","type":"uint256","internalType":"uint256"}]},{"type":"error","name":"ERC1155InvalidOperator","inputs":[{"name":"operator","type":"address","internalType":"address"}]},{"type":"error","name":"ERC1155InvalidReceiver","inputs":[{"name":"receiver","type":"address","internalType":"address"}]},{"type":"error","name":"ERC1155InvalidSender","inputs":[{"name":"sender","type":"address","internalType":"address"}]},{"type":"error","name":"ERC1155MissingApprovalForAll","inputs":[{"name":"operator","type":"address","internalType":"address"},{"name":"owner","type":"address","internalType":"address"}]}],"bytecode":{"object":"0x608060405234801561000f575f80fd5b506040516119e83803806119e883398101604081905261002e9161007b565b60408051602081019091525f81526100458161006b565b50600680546001600160a01b0319166001600160a01b03929092169190911790556101fa565b60026100778282610140565b5050565b5f6020828403121561008b575f80fd5b81516001600160a01b03811681146100a1575f80fd5b9392505050565b634e487b7160e01b5f52604160045260245ffd5b600181811c908216806100d057607f821691505b6020821081036100ee57634e487b7160e01b5f52602260045260245ffd5b50919050565b601f82111561013b57805f5260205f20601f840160051c810160208510156101195750805b601f840160051c820191505b81811015610138575f8155600101610125565b50505b505050565b81516001600160401b03811115610159576101596100a8565b61016d8161016784546100bc565b846100f4565b6020601f82116001811461019f575f83156101885750848201515b5f19600385901b1c1916600184901b178455610138565b5f84815260208120601f198516915b828110156101ce57878501518255602094850194600190920191016101ae565b50848210156101eb57868401515f19600387901b60f8161c191681555b50505050600190811b01905550565b6117e1806102075f395ff3fe608060405234801561000f575f80fd5b506004361061011b575f3560e01c80634e1273f4116100a9578063b2bdfa7b1161006e578063b2bdfa7b1461026d578063bd85b03914610298578063e985e9c5146102b7578063f242432a146102ca578063f5298aca146102dd575f80fd5b80634e1273f4146101fe5780634f558e791461021e578063753c9b011461023f578063941e44d714610252578063a22cb4651461025a575f80fd5b8063156e29f6116100ef578063156e29f61461019d57806317a185dd146101b057806318160ddd146101d05780632a10027f146101d85780632eb2c2d6146101eb575f80fd5b8062fdd58e1461011f57806301ffc9a7146101455780630e89341c146101685780630febdd4914610188575b5f80fd5b61013261012d366004610fbf565b6102f0565b6040519081526020015b60405180910390f35b610158610153366004610fff565b610317565b604051901515815260200161013c565b61017b610176366004611021565b610366565b60405161013c9190611066565b61019b610196366004611078565b6103f8565b005b61019b6101ab3660046110b7565b610419565b6101c36101be366004611021565b610438565b60405161013c91906110e7565b600454610132565b61019b6101e63660046111eb565b6105a3565b61019b6101f93660046112e3565b610622565b61021161020c36600461138f565b61068e565b60405161013c919061148a565b61015861022c366004611021565b5f90815260036020526040902054151590565b61013261024d366004611021565b610758565b600554610132565b61019b61026836600461149c565b61076b565b600654610280906001600160a01b031681565b6040516001600160a01b03909116815260200161013c565b6101326102a6366004611021565b5f9081526003602052604090205490565b6101586102c53660046114d5565b61077a565b61019b6102d8366004611506565b6107a7565b61019b6102eb3660046110b7565b610806565b5f818152602081815260408083206001600160a01b03861684529091529020545b92915050565b5f6001600160e01b03198216636cdb3d1360e11b148061034757506001600160e01b031982166303a24d0760e21b145b8061031157506301ffc9a760e01b6001600160e01b0319831614610311565b60606002805461037590611559565b80601f01602080910402602001604051908101604052809291908181526020018280546103a190611559565b80156103ec5780601f106103c3576101008083540402835291602001916103ec565b820191905f5260205f20905b8154815290600101906020018083116103cf57829003601f168201915b50505050509050919050565b6104138484848460405180602001604052805f815250610811565b50505050565b61043383838360405180602001604052805f81525061089d565b505050565b61045b604051806060016040528060608152602001606081526020015f81525090565b5f828152600760205260409081902081516060810190925280548290829061048290611559565b80601f01602080910402602001604051908101604052809291908181526020018280546104ae90611559565b80156104f95780601f106104d0576101008083540402835291602001916104f9565b820191905f5260205f20905b8154815290600101906020018083116104dc57829003601f168201915b5050505050815260200160018201805461051290611559565b80601f016020809104026020016040519081016040528092919081815260200182805461053e90611559565b80156105895780601f1061056057610100808354040283529160200191610589565b820191905f5260205f20905b81548152906001019060200180831161056c57829003601f168201915b505050505081526020016002820154815250509050919050565b5f6040518060600160405280858152602001848152602001838152509050600160055f8282546105d39190611591565b90915550506005545f908152600760205260409020815182919081906105f990826115f4565b506020820151600182019061060e90826115f4565b506040820151816002015590505050505050565b336001600160a01b03861681148015906106435750610641868261077a565b155b156106795760405163711bec9160e11b81526001600160a01b038083166004830152871660248201526044015b60405180910390fd5b61068686868686866108f8565b505050505050565b606081518351146106bf5781518351604051635b05999160e01b815260048101929092526024820152604401610670565b5f83516001600160401b038111156106d9576106d9611136565b604051908082528060200260200182016040528015610702578160200160208202803683370190505b5090505f5b84518110156107505760208082028601015161072b906020808402870101516102f0565b82828151811061073d5761073d6116ae565b6020908102919091010152600101610707565b509392505050565b5f81815260036020526040812054610311565b61077633838361095d565b5050565b6001600160a01b039182165f90815260016020908152604080832093909416825291909152205460ff1690565b336001600160a01b03861681148015906107c857506107c6868261077a565b155b156107f95760405163711bec9160e11b81526001600160a01b03808316600483015287166024820152604401610670565b6106868686868686610811565b6104338383836109f1565b6001600160a01b03841661083a57604051632bfa23e760e11b81525f6004820152602401610670565b6001600160a01b03851661086257604051626a0d4560e21b81525f6004820152602401610670565b604080516001808252602082018690528183019081526060820185905260808201909252906108948787848487610a53565b50505050505050565b6001600160a01b0384166108c657604051632bfa23e760e11b81525f6004820152602401610670565b604080516001808252602082018690528183019081526060820185905260808201909252906106865f87848487610a53565b6001600160a01b03841661092157604051632bfa23e760e11b81525f6004820152602401610670565b6001600160a01b03851661094957604051626a0d4560e21b81525f6004820152602401610670565b6109568585858585610a53565b5050505050565b6001600160a01b0382166109855760405162ced3e160e81b81525f6004820152602401610670565b6001600160a01b038381165f81815260016020908152604080832094871680845294825291829020805460ff191686151590811790915591519182527f17307eab39ab6107e8899845ad3d59bd9653f200f220920489ca2b5937696c31910160405180910390a3505050565b6001600160a01b038316610a1957604051626a0d4560e21b81525f6004820152602401610670565b604080516001808252602082018590528183019081526060820184905260a082019092525f60808201818152919291610956918791859085905b610a5f85858585610aa6565b6001600160a01b038416156109565782513390600103610a985760208481015190840151610a91838989858589610b8d565b5050610686565b610686818787878787610cae565b610ab284848484610d95565b6001600160a01b038416610b2f575f805b8351811015610b165760208181028481018201519086018201515f908152600390925260408220805491928392610afb908490611591565b90915550610b0b90508184611591565b925050600101610ac3565b508060045f828254610b289190611591565b9091555050505b6001600160a01b038316610413575f805b8351811015610b7c5760208181028481018201519086018201515f90815260039092526040909120805482900390559190910190600101610b40565b506004805491909103905550505050565b6001600160a01b0384163b156106865760405163f23a6e6160e01b81526001600160a01b0385169063f23a6e6190610bd190899089908890889088906004016116c2565b6020604051808303815f875af1925050508015610c0b575060408051601f3d908101601f19168201909252610c0891810190611706565b60015b610c72573d808015610c38576040519150601f19603f3d011682016040523d82523d5f602084013e610c3d565b606091505b5080515f03610c6a57604051632bfa23e760e11b81526001600160a01b0386166004820152602401610670565b805181602001fd5b6001600160e01b0319811663f23a6e6160e01b1461089457604051632bfa23e760e11b81526001600160a01b0386166004820152602401610670565b6001600160a01b0384163b156106865760405163bc197c8160e01b81526001600160a01b0385169063bc197c8190610cf29089908990889088908890600401611721565b6020604051808303815f875af1925050508015610d2c575060408051601f3d908101601f19168201909252610d2991810190611706565b60015b610d59573d808015610c38576040519150601f19603f3d011682016040523d82523d5f602084013e610c3d565b6001600160e01b0319811663bc197c8160e01b1461089457604051632bfa23e760e11b81526001600160a01b0386166004820152602401610670565b8051825114610dc45781518151604051635b05999160e01b815260048101929092526024820152604401610670565b335f5b8351811015610ec6576020818102858101820151908501909101516001600160a01b03881615610e78575f828152602081815260408083206001600160a01b038c16845290915290205481811015610e52576040516303dee4c560e01b81526001600160a01b038a166004820152602481018290526044810183905260648101849052608401610670565b5f838152602081815260408083206001600160a01b038d16845290915290209082900390555b6001600160a01b03871615610ebc575f828152602081815260408083206001600160a01b038b16845290915281208054839290610eb6908490611591565b90915550505b5050600101610dc7565b508251600103610f465760208301515f906020840151909150856001600160a01b0316876001600160a01b0316846001600160a01b03167fc3d58168c5ae7397731d063d5bbf3d657854427343f4c083240f7aacaa2d0f628585604051610f37929190918252602082015260400190565b60405180910390a45050610956565b836001600160a01b0316856001600160a01b0316826001600160a01b03167f4a39dc06d4c0dbc64b70af90fd698a233a518aa5d07e595d983b8c0526c8f7fb8686604051610f9592919061177e565b60405180910390a45050505050565b80356001600160a01b0381168114610fba575f80fd5b919050565b5f8060408385031215610fd0575f80fd5b610fd983610fa4565b946020939093013593505050565b6001600160e01b031981168114610ffc575f80fd5b50565b5f6020828403121561100f575f80fd5b813561101a81610fe7565b9392505050565b5f60208284031215611031575f80fd5b5035919050565b5f81518084528060208401602086015e5f602082860101526020601f19601f83011685010191505092915050565b602081525f61101a6020830184611038565b5f805f806080858703121561108b575f80fd5b61109485610fa4565b93506110a260208601610fa4565b93969395505050506040820135916060013590565b5f805f606084860312156110c9575f80fd5b6110d284610fa4565b95602085013595506040909401359392505050565b602081525f8251606060208401526111026080840182611038565b90506020840151601f1984830301604085015261111f8282611038565b915050604084015160608401528091505092915050565b634e487b7160e01b5f52604160045260245ffd5b604051601f8201601f191681016001600160401b038111828210171561117257611172611136565b604052919050565b5f82601f830112611189575f80fd5b8135602083015f806001600160401b038411156111a8576111a8611136565b50601f8301601f19166020016111bd8161114a565b9150508281528583830111156111d1575f80fd5b828260208301375f92810160200192909252509392505050565b5f805f606084860312156111fd575f80fd5b83356001600160401b03811115611212575f80fd5b61121e8682870161117a565b93505060208401356001600160401b03811115611239575f80fd5b6112458682870161117a565b93969395505050506040919091013590565b5f6001600160401b0382111561126f5761126f611136565b5060051b60200190565b5f82601f830112611288575f80fd5b813561129b61129682611257565b61114a565b8082825260208201915060208360051b8601019250858311156112bc575f80fd5b602085015b838110156112d95780358352602092830192016112c1565b5095945050505050565b5f805f805f60a086880312156112f7575f80fd5b61130086610fa4565b945061130e60208701610fa4565b935060408601356001600160401b03811115611328575f80fd5b61133488828901611279565b93505060608601356001600160401b0381111561134f575f80fd5b61135b88828901611279565b92505060808601356001600160401b03811115611376575f80fd5b6113828882890161117a565b9150509295509295909350565b5f80604083850312156113a0575f80fd5b82356001600160401b038111156113b5575f80fd5b8301601f810185136113c5575f80fd5b80356113d361129682611257565b8082825260208201915060208360051b8501019250878311156113f4575f80fd5b6020840193505b8284101561141d5761140c84610fa4565b8252602093840193909101906113fb565b945050505060208301356001600160401b0381111561143a575f80fd5b61144685828601611279565b9150509250929050565b5f8151808452602084019350602083015f5b82811015611480578151865260209586019590910190600101611462565b5093949350505050565b602081525f61101a6020830184611450565b5f80604083850312156114ad575f80fd5b6114b683610fa4565b9150602083013580151581146114ca575f80fd5b809150509250929050565b5f80604083850312156114e6575f80fd5b6114ef83610fa4565b91506114fd60208401610fa4565b90509250929050565b5f805f805f60a0868803121561151a575f80fd5b61152386610fa4565b945061153160208701610fa4565b9350604086013592506060860135915060808601356001600160401b03811115611376575f80fd5b600181811c9082168061156d57607f821691505b60208210810361158b57634e487b7160e01b5f52602260045260245ffd5b50919050565b8082018082111561031157634e487b7160e01b5f52601160045260245ffd5b601f82111561043357805f5260205f20601f840160051c810160208510156115d55750805b601f840160051c820191505b81811015610956575f81556001016115e1565b81516001600160401b0381111561160d5761160d611136565b6116218161161b8454611559565b846115b0565b6020601f821160018114611653575f831561163c5750848201515b5f19600385901b1c1916600184901b178455610956565b5f84815260208120601f198516915b828110156116825787850151825560209485019460019092019101611662565b508482101561169f57868401515f19600387901b60f8161c191681555b50505050600190811b01905550565b634e487b7160e01b5f52603260045260245ffd5b6001600160a01b03868116825285166020820152604081018490526060810183905260a0608082018190525f906116fb90830184611038565b979650505050505050565b5f60208284031215611716575f80fd5b815161101a81610fe7565b6001600160a01b0386811682528516602082015260a0604082018190525f9061174c90830186611450565b828103606084015261175e8186611450565b905082810360808401526117728185611038565b98975050505050505050565b604081525f6117906040830185611450565b82810360208401526117a28185611450565b9594505050505056fea26469706673582212200407e3b5c53e5b4cdc4b5c78953d9ca89256d3790ac08a23f9fdc1f75bff8db564736f6c634300081a0033","linkReferences":{}},"methodIdentifiers":{"_owner()":"b2bdfa7b","balanceOf(address,uint256)":"00fdd58e","balanceOfBatch(address[],uint256[])":"4e1273f4","burn(address,uint256,uint256)":"f5298aca","createTPFt(string,string,uint256)":"2a10027f","exists(uint256)":"4f558e79","getTPFtData(uint256)":"17a185dd","getTPFtTotals()":"941e44d7","getTotalSupplyById(uint256)":"753c9b01","isApprovedForAll(address,address)":"e985e9c5","mint(address,uint256,uint256)":"156e29f6","safeBatchTransferFrom(address,address,uint256[],uint256[],bytes)":"2eb2c2d6","safeTransferFrom(address,address,uint256,uint256)":"0febdd49","safeTransferFrom(address,address,uint256,uint256,bytes)":"f242432a","setApprovalForAll(address,bool)":"a22cb465","supportsInterface(bytes4)":"01ffc9a7","totalSupply()":"18160ddd","totalSupply(uint256)":"bd85b039","uri(uint256)":"0e89341c"},"id":124}